:020000040800F2
:10000000684A0020A10100082F1E0008BF1C00083C
:100010002D1E0008B103000865250008000000003F
:10002000000000000000000000000000DD1F0008CC
:10003000ED03000800000000311E0008DF1F00086B
:10004000BB010008BB010008BB010008BB010008A0
:10005000BB010008BB010008BB010008BB01000890
:10006000BB010008BB010008BB010008BB01000880
:10007000BB010008BB010008BB010008BB01000870
:10008000BB010008BB010008BB010008BB01000860
:10009000BB010008BB010008BB010008BB01000850
:1000A000BB010008BB010008BB010008BB01000840
:1000B000BB0100080000000000000000BB010008B8
:1000C000BB0100080000000000000000BB010008A8
:1000D00000000000BB010008BB0100080000000098
:1000E000BB010008BB010008000000000000000088
:1000F0000000000000000000000000000000000000
:10010000000000000000000000000000BB0100082B
:100110000000000000000000BB010008BB01000857
:10012000BB010008BB010008BB010008BB010008BF
:10013000BB010008000000000000000000000000FB
:10014000BB010008BB010008BB010008BB0100089F
:10015000BB010008BB010008BB010008BB0100088F
:10016000BB010008BB010008BB0100080000000043
:10017000BB010008BB0100080000000000000000F7
:10018000BB010008BB010008BB010008DFF80CD070
:1001900000F09CF80048004719350008684A002024
:1001A0000648804706480047FEE7FEE7FEE7FEE711
:1001B000FEE7FEE7FEE7FEE7FEE7FEE75D2000085C
:1001C0008D0100082DE9F05F0546002092469B4610
:1001D00088460646814640241BE02846414647465D
:1001E000224600F063F853465A46C01A914110D394
:1001F00011461846224600F04AF82D1A67EB01080E
:100200004F4622460120002100F041F817EB00097B
:100210004E41201EA4F10104DFDC484631462A4647
:10022000434600F000B830BCBDE8C09F40EA01037F
:100230009B0703D009E008C9121F08C0042AFAD29C
:1002400003E011F8013B00F8013B521EF9D2704760
:10025000D2B201E000F8012B491EFBD27047002208
:10026000F6E710B513460A4604461946FFF7F0FFB5
:10027000204610BD30B504460020034600E05B1C5C
:10028000934203D2E05CCD5C401BF8D030BD202A05
:1002900004DB203A00FA02F1002070479140C2F1DD
:1002A000200320FA03F3194390407047202A04DB0F
:1002B000203A21FA02F00021704721FA02F3D040DF
:1002C000C2F120029140084319467047064C074D81
:1002D00006E0E06840F0010394E807009847103416
:1002E000AC42F6D3FFF756FF9C750008BC750008BA
:1002F00070B58C1810F8015B15F0070301D110F8E8
:10030000013B2A1106D110F8012B03E010F8016B14
:1003100001F8016B5B1EF9D12B0705D40023521E97
:100320000DD401F8013BFAE710F8013BCB1A921CFF
:1003300003E013F8015B01F8015B521EF9D5A142FD
:10034000D8D3002070BD000070B5044600688168F5
:1003500011F0010F28D18168144A114215D181682A
:10036000D5432940491C816000F022FD064616E075
:10037000816811F0010F03D181682940491C816017
:1003800000F016FD801B022809D9606D40F01000B6
:100390006065A06D40F00100A065012070BD20687F
:1003A0000168C943C907E3D1002070BD3F00008048
:1003B000FEE700000948016821F0010101600848DA
:1003C0000121816081680029FCD106490160006833
:1003D0000549884200D0FEE770470000002000E099
:1003E00000300240C2A507F4CDB5E8B57047000063
:1003F0002DE9F84F00270446009790F85000DFF8E9
:10040000B0930D46B846012811D0012684F85060FB
:10041000206801F05FFC60B1606D40F02000606515
:100420005FF0010784F85080384600F0D7B9022009
:10043000FBE768680C23052812D8022807D0032898
:1004400007D0042807D0052807D0062007E06B60F6
:1004500006E0122003E0182001E04FF4807068608D
:10046000D5E90021206803EA91131844036B01F0D9
:100470001F014FF01F0C0CFA01FCC2F3846223EA47
:100480000C038A4013430363206801F023FC824677
:10049000206801F01BFC5AEA00001DD1AA682968F7
:1004A000206801F023FC20686969C268C2F3C102B8
:1004B000520091402A69042A0FD000EB82002B6879
:1004C000026EDFF8F0C203F0F84302EA0C020B43BD
:1004D0001A4342F00041016672E0002101F0F0FB96
:1004E000400320684FF0000172D001F0E9FB90FA60
:1004F000A0F0B0FA80F1286842036ED090FAA0F024
:10050000B0FA80F0814204D100221146206801F047
:10051000FCFB0121206801F0D3FB400320684FF071
:1005200001015DD001F0CCFB90FAA0F0B0FA80F1AF
:100530002868420359D090FAA0F0B0FA80F08142C6
:1005400004D100220121206801F0DFFB0221206894
:1005500001F0B6FB400320684FF0020148D001F0E3
:10056000AFFB90FAA0F0B0FA80F12868420344D0C3
:1005700090FAA0F0B0FA80F0814204D1002202216A
:10058000206801F0C2FB0321206801F099FB4003C1
:1005900020684FF0030133D001F092FB90FAA0F0F5
:1005A000B0FA80F1286842032FD090FAA0F0B0FA98
:1005B00080F0814204D100220321206801F0A5FBD4
:1005C0002068816811F0010F22D0ACE000E004E067
:1005D00001F076FBC0F384618DE7C0F3846091E79E
:1005E00001F06EFBC0F38461A2E7C0F38460A6E76C
:1005F00001F066FBC0F38461B7E7C0F38460BBE73A
:1006000001F05EFBC0F38461CCE7C0F38460D0E707
:100610002A7B296850F8B03FC1F3120C23EA0C037F
:1006200002F0180C644A22FA0CF20A4013430360E9
:10063000E968494577D1286841031CD090FAA0F1B8
:10064000B1FA81F1491C01F01F0109294FEA40313B
:1006500032D8002912D000BF90FAA0F1B1FA81F18E
:1006600001F1010101F01F0106FA01F609D100BFF5
:10067000C0F3846109E0C0F38461E3E7C0F38461FF
:10068000EEE790FAA0F1B1FA81F101F1010101F078
:100690001F0146EA816102D1C0F3846003E090FA51
:1006A000A0F0B0FA80F000F1010000F01F0000EBB4
:1006B000400041EA005132E000290ED090FAA0F14A
:1006C000B1FA81F101F1010101F01F0106FA01F611
:1006D00006D100BFC0F3846106E0C0F38461F1E796
:1006E00090FAA0F1B1FA81F101F1010101F01F01CD
:1006F00046EA816102D1C0F3846003E090FAA0F081
:10070000B0FA80F000F1010000F01F002B4A00EB6E
:10071000400002EB005041EA000141F00071AA687C
:10072000206801F0E3FA26482A6802423FF47AAED4
:1007300024488168244D254B01F0E071AA421AD16A
:100740000D0218D422689A427FF46CAE826841F49C
:10075000000122F0E0720A4382601D481D490068D2
:10076000B0FBF1F000EB4000800000E0401E009084
:100770000028FBD156E6184DAA4207D1CD0105D479
:1007800022689A42F6D141F080710AE06FF000458C
:10079000EA42EFD14A02EDD422689A42EAD141F40A
:1007A0008001826822F0E0720A4382603AE600002B
:1007B00000007F4000F0FF03FFFF0700000020FE65
:1007C0000000088000030450000052C700000450DD
:1007D000E8060020400D0300000084CB18BCBDE8F3
:1007E000E08F0068006C7047F8B54FF0000504001A
:1007F0002E46009502D0606D10B107E00120F8BDD3
:10080000204600F0C7F8A66584F85060206881682B
:10081000C1F3407119B18168564A11408160206866
:100820008168C1F3007179B98168534A114041F080
:1008300080518160514852490068B0FBF1F000E0FE
:10084000401E00900028FBD120688168C1F3007130
:1008500041B9616D41F010016165A16D41F0010187
:10086000A165012501F036FA616DC90600D430B1E9
:10087000606D40F01000606501252846F8BD606D90
:1008800020F4807040F0020060652068806810F0FD
:10089000010F0BD13B48806810F0010F06D13A4898
:1008A0006168826822F47C120A438260E168606BAE
:1008B000627E0843A16841EA4231084394F820105F
:1008C00040EA0140012904D1A18C304A02EB4141A8
:1008D0000843A16A29B101F47071E26A014342EA56
:1008E00001002168CA682A4B1A400243CA60206886
:1008F00001F0F0F90646206801F0E8F9304315D11F
:10090000207E94F83010800340EA41022068C168DC
:1009100044F2020399431143C16094F8380001285E
:100920000CD02068016921F00101016120690128D2
:100930002068016B21F00F0111D013E0D4E90F0101
:100940000843D4E911121143084321680A6940F2AF
:10095000FC739A43104340F001000861E6E7E26946
:10096000521E11430163606D20F0020040F001004F
:10097000606582E7C0FFFF5FC0FFFF7FE8060020E1
:10098000400D030000000450000304500000FEFF6F
:1009900007C0F0FF10B586B0044614216846FFF783
:1009A0005EFC1149206888421BD11048C16C41F49B
:1009B0000051C164C16C01F400510591C16C41F05A
:1009C0000101C164C06C694600F00100059001207E
:1009D00000900B200190002002904FF0904000F01A
:1009E00015F906B010BD00000000045000100240D0
:1009F0002DE9F041044640690D4608280AD02068D8
:100A0000C068C00708D0606D40F02000606501201C
:100A1000BDE8F081082600E0042600F0C9F9074689
:100A200007E0681C05D000F0C3F9C01BA8420FD82E
:100A300075B1206800683042F3D0606D40F40070FA
:100A40006065206801F04AF9D0B1607E48B117E0D6
:100A5000606D40F004006065002084F850000320C1
:100A6000D6E72068006800070AD5606D20F4807022
:100A70006065606DC00403D4606D40F00100606586
:100A80002068C168082E05D0490401D40C210160FA
:100A90000020BDE70821FAE710B50446006801F020
:100AA00019F910B10221084610BD94F85000012830
:100AB0000CD0012084F850002046FFF745FC0100CF
:100AC0004FF0000004D084F85000ECE7022010BD85
:100AD000626D40F601639A4342F480726265626D12
:100AE000D20404D5A26D22F00602A26500E0A06542
:100AF00023681C221A6084F850002068C2689201A2
:100B000005D5626D22F4005242F48052626582681B
:100B1000024B1A40121D8260C5E70000C0FFFF7F34
:100B2000F0B5044600201E23012601E05B1E05D31C
:100B300003F01F0706FA07F50D42F7D072B1082A35
:100B40000AD0102A05D0182A01D1072B06D301207C
:100B5000F0BD082BFBD201E0102BF8D223685961BD
:100B600021688B6823F0180313438B60F0BD0000ED
:100B700010B5040010D0607F20B9002020772046F7
:100B800000F030F802206077207938B1D4E9021201
:100B90002046FFF7C5FF48B1012010BD216810486D
:100BA00048612068816821F0180181606079A0B1F6
:100BB00020692168086120688168626921F060010C
:100BC0001143816020688168A26921F0800111438E
:100BD000816001206077002010BD4FF0FF30E8E712
:100BE000B71DC10408B500680649884208D1064807
:100BF000816C41F480518164806C00F480500090DD
:100C000008BD000000300240001002402DE9FC4FFA
:100C1000DFF880A1002301250AF1040B03244FF023
:100C20000F0C0BF1040EAEE005FA03F632406FD064
:100C30004F68012F05D0022F03D0112F01D0122FA2
:100C400017D1D0F808905F0004FA07F829EA0809DC
:100C50000097D1F80C8008FA07F848EA0908C0F8AC
:100C600008804768B7430E79C6F300169E403E439E
:100C70004660C6684FEA430804FA08F7BE43019786
:100C80008F6807FA08F73743C7604E68022E01D015
:100C9000122E13D1DE0800EB86060096366A5F0737
:100CA000FF0E0CFA07F926EA0906D1F8109009FAA6
:100CB00007F949EA0609009EC6F820900768019ED8
:100CC000B7430E7906F0030606FA08F63E430660BF
:100CD0004E68F60056D5304E376E47F0010737663E
:100CE000366E23F0030706F0010600962B4E3E44B5
:100CF000B146B6689F074FEA17780CFA08F7BE436B
:100D0000B0F1904F05D0264FB84204D1012708E03A
:100D100038E0002705E0234FB84201D1022700E068
:100D2000072707FA08F73743C9F80870DAF80060B0
:100D30005746D1F8048096435FEAC83800D5164379
:100D40003E60DBF800605F46D1F8048096435FEABE
:100D5000883800D516433E60DEF800607746D1F84B
:100D6000048096435FEAC82800D516433E60094FC9
:100D70000C373E68D1F8048096435FEA882800D596
:100D800016433E605B1C0A6832FA03F67FF44CAFF0
:100D900000F00AB8000401400010024000000140C9
:100DA00000040048000800481CBCBDE8E08F0000BB
:100DB0000148806870470000DC0600200248816816
:100DC0004268114481607047DC06002010B50024A1
:100DD000032000F063F8002000F008F808B10124B7
:100DE00001E000F025F8204610BD000070B50E4E61
:100DF00005460024706898B14FF47A71B1FBF0F0A9
:100E00000A490968B1FBF0F000F098FD40B9102DD7
:100E100006D200222946501E00F020F8356000E07E
:100E20000124204670BD0000DC060020E8060020FA
:100E3000094808B5016E41F001010166016E01F03B
:100E400001010091816D41F080518165806D00F05C
:100E50008050009008BD000000100240F0B40E4B1E
:100E60001B680C46C3F30223C3F10705042D00D908
:100E70000425191D072901D2002300E0DB1E0126ED
:100E800006FA05F1491E214099409E40761E164003
:100E90003143F0BC01F07ABB0CED00E0064900F0F4
:100EA000070208684FF6FF03184040EA0220034A91
:100EB00010430860704700000CED00E00000FA05E8
:100EC0001649B0F5007F0868C0F3412009D0022818
:100ED00005D0086820F4C06040F4806008600020FD
:100EE00070470128FBD0086820F4C06040F400700F
:100EF00008600B483222006850430A4AB0FBF2F007
:100F0000401C00E0401E4A69520501D50028F9D175
:100F100048694005E3D50320704700000070004099
:100F2000E806002040420F000248006800F4C0605C
:100F300070470000007000402DE9F84F044600277C
:100F400000889C4D3E46000515D5E06B60B1B0F5BC
:100F5000000F04D0B0F5400F2BD001270AE0E8685D
:100F600040F48030E86024E00021201D00F062FFA2
:100F700007001ED03E462068800338D5A86D4FF08C
:100F80000008C00009D4A86D40F08050A865A86D85
:100F90004FF0010800F080500090DFF81CA2DAF852
:100FA000001041F48071CAF80010FFF701FF81467C
:100FB00010E0D5F88800E16B20F440000843C5F844
:100FC0008800D8E7FFF7F4FEA0EB0900022801D95A
:100FD000032704E0DAF80000C005F3D5EFB33E467E
:100FE000B8F1000F03D0A86D20F08050A8652078DC
:100FF000C00707D0D5F88800216A20F00300084315
:10100000C5F888002078800707D5D5F88800616A80
:1010100020F00C000843C5F888002078800607D52A
:10102000D5F88800A16A20F440600843C5F888001C
:101030002088800507D5D5F88800616B20F4402012
:101040000843C5F888002088400509D5D5F88800F0
:10105000A16B20F44010084300E02EE0C5F88800A2
:101060002078400607D5D5F88800E16A20F4405082
:101070000843C5F888002088C00507D5D5F8880042
:10108000216B20F440300843C5F8880020884FF0D9
:10109000006780044FF080684ED5D5F88800216C39
:1010A00020F040600843C5F88800206CB8423BD16E
:1010B000E86840F48010E8603EE0D5F8900010F455
:1010C000407014D0216D814211D0D5F89000D5F830
:1010D000901020F4407041F48031C5F89010D5F89C
:1010E000901021F48031C5F89010C5F89000C00729
:1010F00011D0FFF75DFE074641F2883907E000BFD7
:10110000FFF756FEC11B494501D9032668E7D5F80C
:1011100090008007F4D5D5F89000216D20F4407040
:101120000843C5F890005BE7404505D10121201D2B
:1011300000F080FE00B106462068400317D5D5F8C0
:101140008800616C20F040600843C5F88800606C3E
:10115000B84204D1E86840F48010E86007E04045F8
:1011600005D10121201D00F065FE00B10646208852
:10117000400411D5D5F88800A16C20F040500843F8
:10118000C5F88800A06CB0F1805F05D10221201D58
:1011900000F050FE00B106462088000406D555F840
:1011A000880FE16C20F0804008432860304600F052
:1011B00005B80000001002400070004018BCBDE8F7
:1011C000E08F00002DE9F0470F46050058D0404E53
:1011D000306800F00700B84209D2306820F00700FC
:1011E00038433060306800F00700B84248D12878B2
:1011F000384CC0072CD06868032811D0022812D0C0
:10120000216898B1490500293ADAA16821F0030163
:101210000143A160FFF7CCFD804641F2883910E020
:1012200021688901EFE721688903ECE78907EAE78C
:10123000FFF7BEFDA0EB0801494502D90320BDE838
:10124000F087A068696800F00C00B0EB810FEFD167
:101250002878800705D5A068A96820F0F000084329
:10126000A060306800F00700B8420BD9306820F069
:10127000070038433060306800F00700B84201D002
:101280000120DCE72878400705D5A068E96820F44C
:10129000E0600843A0602878000706D5A0682969A7
:1012A00020F4605040EAC100A06000F03FF8A1685F
:1012B000094AC1F30311515C01F01F01C8400749FD
:1012C000086007480068BDE8F047FFF78FBD0000E1
:1012D000002002400010024004750008E8060020CB
:1012E000DC0600200548064900688968054AC1F304
:1012F0000221515C01F01F01C8407047E806002040
:1013000000100240447500080548064900688968D5
:10131000054AC1F3C221515C01F01F01C84070476A
:10132000E8060020001002404475000870B5254909
:10133000002318468A68CC6812F00C0204F00306F9
:10134000214C4FEA640509D00C2A05D0042A32D07A
:10135000082A00D1284670BD012E10D10B681B074A
:1013600004D4D1F89430C3F3032302E00B68C3F331
:101370000313164E56F82330DAB10C2AEBD1C868A5
:1013800000F00300022818D0032818D01846CA68B5
:10139000CB68C2F30212C3F306234343521CB3FBD0
:1013A000F2F2C868C0F34160401C4000B2FBF0F0AC
:1013B00070BD184670BD204670BD2046E7E7284640
:1013C000E5E70000001002400024F4001475000856
:1013D0002DE9F84304006FD0FE4DA86800F00C061C
:1013E000E86800F003072078C00664D576B10C2EBB
:1013F00001D1012F0AD0A069002828687AD040F0D6
:1014000001002860FFF7D4FC80465DE02868800773
:1014100002D5A0690028DED0216A2868000703D51C
:10142000286800F0F00004E0D5F89400F02202EA09
:101430001010814216D9084600F092FD00283BD1D9
:10144000286840F0080028602868216A20F0F00031
:10145000084328606868E16920F47F4040EA012081
:10146000686016E0286840F0080028602868216A53
:1014700020F0F000084328606868E16920F47F40AC
:1014800040EA0120686026B9206A00F069FD002862
:10149000D5D1FFF74BFFA968CF4AC1F30311515CC7
:1014A00001F01F01C840CD490860CD480068FFF732
:1014B0009DFC00287ED12EE0CAE000BFFFF778FC3B
:1014C000A0EB0800022876D828688007F6D528689F
:1014D00040F0080028602868216A20F0F0000843E6
:1014E00028606868E16920F47F4040EA0120686074
:1014F00011E0FFE720F001002860FFF759FC80466B
:1015000006E000BFFFF754FCA0EB08000228DAD881
:1015100028688007F6D42078C00740D0082E18D05D
:101520000C2E01D1032F14D06068B0F5803F17D086
:10153000B0F5A02F286817D020F4803028602868E4
:1015400020F4802028606068E0B1FFF731FC80461D
:1015500014E02868800322D56068002878D01EE057
:10156000286840F48030EDE740F480202860F7E7F9
:10157000FFF71EFCA0EB08006428A4D828688003AD
:10158000F6D50CE0FFF714FC804605E0FFF710FCF1
:10159000A0EB0800642896D828688003F6D4207849
:1015A00080073BD5042E11D00C2E01D1022F0DD077
:1015B000E06801E0B6E1FFE0002828681ED040F4B2
:1015C00080702860FFF7F4FB07460CE028684005B0
:1015D0000CD5E0680028C1D008E000BFFFF7E8FBA9
:1015E000C01B022893D828684005F7D56868217C7D
:1015F00020F0F85040EA016068600FE020F480704D
:101600002860FFF7D5FB074605E000BFFFF7D0FBDA
:10161000C01B0228B1D828684005F7D420780007FD
:1016200029D560690028D5F8940012D040F0010057
:10163000C5F89400FFF7BCFB074604E0FFF7B8FBD2
:10164000C01B022899D8D5F894008007F6D512E07F
:101650002BE120F00100C5F89400FFF7A9FB074635
:1016600005E000BFFFF7A4FBC01B022885D8D5F812
:1016700094008007F6D42078400766D5A86D00272F
:10168000C00008D4A86D40F08050A865A86D01275F
:1016900000F08050009053480168C90512D40168D9
:1016A000814641F480710160FFF782FB804605E0CE
:1016B000FFF77EFBA0EB080002287DD8D9F80000D8
:1016C000C005F5D5A068012816D00528D5F89000EA
:1016D00017D020F00100C5F89000D5F8900020F058
:1016E000040000BFC5F89000A06841F28839C0B17D
:1016F000FFF75EFB80460FE0D5F8900040F0010058
:10170000F0E740F00400C5F89000F5E7FFF750FB64
:10171000A0EB080149454FD8D5F890008007F5D5D2
:101720000EE0FFF745FB804606E000BFFFF740FBF9
:10173000A0EB080149453FD8D5F890008007F5D4C3
:101740001FB1A86D20F08050A8652078800628D5AC
:10175000606A0028D5F8980012D040F00100C5F862
:101760009800FFF725FB074605E000BFFFF720FBC9
:10177000C01B022820D8D5F898008007F6D510E0C5
:1017800020F00100C5F89800FFF712FB074604E0BF
:10179000FFF70EFBC01B02280ED8D5F89800800773
:1017A000F6D4A06AA8B1022824D00C2E7DD02868D7
:1017B00020F08070286000E0B3E02868000103D4C6
:1017C000E86820F00300E860E86807490840E8603E
:1017D0000CE09FE00010024004750008E8060020BD
:1017E000DC06002000700040FFFFEEFEFFF7E0FA8D
:1017F000044699E0E868E26A00F00301914226D1CC
:10180000216B00F070020901103991421FD1626B07
:1018100000F4FE41B1EB022F19D194F8382000F00A
:101820007841B1EBC26F12D1A18F00F4C002490818
:101830004905A1F50011914209D194F8401000F03A
:10184000C06049084906A1F1007181424BD00C2EBD
:101850006FD0286840016CD4286820F08070286020
:10186000FFF7A6FA064604E0FFF7A2FA801B02285B
:1018700057D828688001F7D4F4E90B016FF00F0204
:1018800002EB01110843218A5204490802EB41513D
:10189000A26841EA02210843217D4FF07E424908B7
:1018A00002EB41610843217B00E042E040EAC16075
:1018B000E968214A11400843E860286840F08070D8
:1018C0002860E86840F08070E860FFF771FA04462D
:1018D00005E000BFFFF76CFA001B022821D828683A
:1018E0008001F7D523E02868800120D4286840F0E3
:1018F00080702860E86840F08070E860FFF758FA70
:10190000044604E0FFF754FA001B022809D82868AF
:101910008001F7D50BE000BFFFF74AFA001B022851
:1019200002D90320BDE8F88328688001F4D40020A0
:10193000F8E70120F6E700008C809D0110B5401EFD
:10194000B0F1807F01D3012010BD4FF0E024606131
:101950000F21601700F01AFE0020A061072020610F
:10196000002010BDF0B590F83C20012A29D00124B8
:1019700080F83C40022280F83D2003685A689D6848
:10198000114EB34203D122F470074A683A4322F061
:1019900070070A683A435A600268B24205D0B2F151
:1019A000804F02D0094B9A4204D1896825F0800308
:1019B0001943916080F83D40002180F83C100846B2
:1019C000F0BD0220F0BD0000002C014000400140AD
:1019D00010B5040003D094F83D0010B107E00120D9
:1019E00010BD002084F83C00204600F00DF80220D5
:1019F00084F83D00211D206800F052FB012084F88E
:101A00003D00002010BD000008B50068064988426E
:101A100008D10648016E41F400610166006E00F4D1
:101A20000060009008BD0000002C01400010024042
:101A3000022180F83D1001688A68084B1A40062A86
:101A400006D0B2F5803F03D00A6842F001020A6076
:101A5000012180F83D1000207047000007000100C0
:101A600070B5044690F83C00012817D0012584F891
:101A70003C50022084F83D00226890682E4B1840AC
:101A800020F47F4090600868502830D00DDC20287A
:101A90004DD005DC98B310283BD148E0022070BD42
:101AA000302844D0402834D139E0602828D070282C
:101AB00006D0B0F5805F2CD0B0F5005F29D10AE0E8
:101AC000CB68D1E90121206800F020FB2068816803
:101AD00041F0770109E0CB68D1E90121206800F0ED
:101AE00015FB2068816841F48041816011E0CA687B
:101AF0004968206800F01CFB5021206807E016E0D0
:101B0000CA684968206800F024FB6021206800F062
:101B100007FB84F83D50002084F83C0070BDCA6883
:101B20004968206800F004FB40212068EFE7226844
:101B300001461046EBE7000088FFFEFF10B50400E9
:101B400002D0606F10B107E0012010BD002084F8C2
:101B50007000204600F026F82420606720680168A5
:101B600021F001010160204600F096FB0128ECD035
:101B7000606A10B1204600F0FEFA2068416821F446
:101B8000904141602068816821F02A0181602068CD
:101B9000016841F0010101602046BDE8104000F0FD
:101BA0004EBB000010B586B0044614216846FEF70F
:101BB00056FB13492068884220D11248016E41F437
:101BC00080410166016E01F480410591C16C41F0D4
:101BD0000101C164C06C694600F0010005904FF43A
:101BE000C06000900220019000200290032003902A
:101BF000072004904FF09040FFF708F806B010BDA2
:101C000000380140001002402DE9F8430446406FBF
:101C10001F4616460D4620284FD1CDB1C6B194F8C7
:101C20007000012849D0012084F870004FF00008AE
:101C3000C4F87C8021206067FFF7BAF8A4F85060F0
:101C40008146A4F85260A068B0F5805F03D004E03C
:101C50000120BDE8F883206928B12E465FF0000519
:101C600084F8708010E00026FAE78021204600F01A
:101C700027FCB8B9C6B116F8010B21680885B4F87D
:101C80005200401EA4F85200B4F852004B464FF0E8
:101C9000000200970028E8D14FF04001204600F0F4
:101CA0000FFC30B10320D4E735F8020BC0F3080075
:101CB000E3E7202060670020CBE70220C9E7FEE7CA
:101CC00000EB8100006E00F0F84070478068C0F3C0
:101CD000C00070478068C0F380007047C06810F48F
:101CE000406F01D00020704701207047042303EAB1
:101CF000D15310B518444369C1F3045107248C40F3
:101D0000A3438A401343436110BD00EB8100016E81
:101D100021F00041114301667047000030B587B0E3
:101D200018216846FEF79BFA154814490024C0E9BB
:101D3000001484600425C460C0E9044504760121D0
:101D40004176C16180F82040C0E90914C46280F87E
:101D500030400903416380F83840FEF745FD0948EB
:101D600000900620CDE901047F200594CDE903050C
:101D700069460348FEF73CFB07B030BD0000045045
:101D8000400700202000F01410B588B0002413484C
:101D90000594069403940494009401940E490294CB
:101DA00001600721C0E901144CF24F31C0E903146E
:101DB00044618461FFF70CFE4FF48050039003A947
:101DC0000648FFF74DFE00940194694603480294CB
:101DD000FFF7C8FD08B010BD002C0140C807002067
:101DE0000948084901604FF4E131416000218160F8
:101DF0000C22C160C0E904128161C16101624162CB
:101E0000FFF79CBE0038014008080020014800F0A0
:101E100085BE00008808002010B5034900F0ACFE24
:101E2000014890ED000A10BD180A0020FEE7704737
:101E3000704700002DE9F041444C05468846E068B3
:101E40000026810728680DD0E16801F00301814276
:101E500016D1A8B1E0686968C0F30210401C88423E
:101E60000ED120E0012804D0022805D0032807D194
:101E700008E02168890701E021684905002907DB9E
:101E800001265FE02168890302D421684903F5E750
:101E9000E1686A686FF00F0321F0730103EB02122F
:101EA00011430143E160206820F080602060FEF76C
:101EB0007FFF074605E000BFFEF77AFFC01B022840
:101EC00037D820680001F7D4B8F1000F18D0B8F166
:101ED000010F1DD0287D4FF07E41400801EB40608E
:101EE000A96840EA01202169194A1140084320618C
:101EF000206840F080602060FEF75AFF07461AE035
:101F0000A868297B000240EAC1602169114AECE718
:101F1000288A1149400801EB4050A96840EA012095
:101F200021690E4AE1E700BFFEF742FFC01B02280D
:101F300001D9032606E020680001F5D52069A969CA
:101F4000084320613046BDE8F081000000100240E7
:101F5000FF80FFF9FF80FF070000E0FFFF809FFF89
:101F6000F8B51C4D06460024A86DC00002D5FEF74A
:101F7000DBFF0DE0A86D40F08050A865A86D00F073
:101F800080500090FEF7D0FFA96D21F08051A96527
:101F9000B0F5007F04D0802E07D94FF003040AE08B
:101FA000802E08D9A02E01D804E001D1022402E03D
:101FB000702E00D101240848016821F00701214357
:101FC0000160006800F00700A04201D00120F8BDC8
:101FD0000020F8BD00100240002002407047FEF7CC
:101FE000EDBE30B5ABB0442115A8FEF738F9142189
:101FF00026A8FEF734F954216846FEF730F9102080
:10200000159000247020CDE91C4001251B9515A8D2
:102010001F94FFF7DDF90F20CDE9260428942994B9
:10202000002126A82A94FFF7CDF844F20100009081
:10203000000712900820CDE90250072004900220EA
:10204000019505900690C005CDE907046846FEF7A6
:1020500073FF6802FEF734FF2BB030BD0D480168F6
:1020600041F4700101600C48016841F00101016018
:10207000002181600268094B1A4002608214C2602C
:10208000026822F48022026081610249C003803923
:102090000860704788ED00E000100240FFFFF6EA9C
:1020A00070B50268164B4FF08046984201D0B0429E
:1020B00003D122F070044A682243124C124D984218
:1020C00005D0B04203D0A04201D0A84203D122F4EF
:1020D0004076CA6832434E6922F080023243026081
:1020E0008A68C2620A688262984203D0A04201D024
:1020F000A84201D1096901630121416170BD00005D
:10210000002C0140004001400044014010B58468AB
:1021100042EA032224F47F440A432243826010BD32
:10212000826822F070020A4342F007018160704722
:1021300010B5036A046A24F001040462846924F07F
:10214000F00444EA021423F00A020A4384610262A2
:1021500010BD10B5036A23F0100303628369046A9B
:1021600023F4704343EA023224F0A00343EA01114E
:102170008261016210BD90F82410C90706D0016881
:102180004A68836A22F400321A434A6090F82410A5
:10219000890706D501684A68C36A22F480321A4367
:1021A0004A6090F82410490706D501684A68036B15
:1021B00022F480221A434A6090F82410090706D5B9
:1021C00001684A68436B22F400421A434A6090F85F
:1021D0002410C90606D501688A68836B22F48052F0
:1021E0001A438A6090F82410890606D501688A6827
:1021F000C36B22F400521A438A6090F824104906F7
:1022000011D501684A68036C22F480121A434A60AF
:10221000016CB1F5801F06D101684A68436C22F455
:10222000C0021A434A6090F82410090606D50168D6
:102230004A68806C22F4002202434A607047F8B575
:1022400000260446C667FEF7B3FD05462068006811
:102250006FF07E47000708D52B4600224FF400118F
:102260002046009700F02CF960B92068006840070C
:102270000AD52B4600224FF480012046009700F03B
:102280001FF908B10320F8BD20206067A06784F81B
:1022900070600020F8BD00002DE9F04104460068A0
:1022A0002369A268E5691A43636900272B431A432F
:1022B0007A4903687A4D2B401343036020684268D3
:1022C000E36822F440521A4342602268A0698A42BD
:1022D00001D0236A1843936823F430630343936067
:1022E000704B226870489A420DD1D0F8880010F0E7
:1022F000030006D0012838D0022834D0032821D189
:1023000035E001251FE0694B9A420BD1D0F88800D7
:1023100010F00C0025D0042827D0082823D00C2842
:1023200010D124E08A420DD1D0F8880010F440602A
:1023300017D0B0F5806F18D0B0F5006F13D0B0F59E
:10234000406F14D010255A4B00264FF400408A42AB
:1023500045D175B1022D0FD0042D0FD0082D18D105
:102360000FE00025EFE70225EDE70425EBE7082560
:10237000E9E7FEF7B7FF03E0184602E0FEF7D6FFF5
:10238000A8B3626802EB4201814202D8B0EB023F7F
:1023900001D901276FE0DFF81C815DB1022D0CD05F
:1023A000042D13D0082DF4D150082905401846F10A
:1023B000000105E0FEF796FF0AE050083E49F5E708
:1023C0000023FDF7FFFEA0F5407150E0FEF7AEFFE1
:1023D0006268010E0302500818187141F0E7E169C4
:1023E0004FF6EF7881422FD1092DD2D200E042E0A2
:1023F000DFE805F006092005230505052600C8E7E6
:10240000FEF770FF01E0FEF77FFF4100D4F8040003
:1024100001EB5001B1FBF0F080B2A0F11001414599
:10242000B7D84FF6F0710140C0F342000143206875
:10243000C16020E021496068EAE7FEF777FFE4E742
:102440004FF480316068E3E7092DA2D2DFE805F0A0
:10245000060918051E05050520009AE7FEF742FF4C
:1024600016E0FEF751FF13E080B2A0F110014145E4
:102470008FD82168C860266638466666BDE8F08158
:10248000606803EB5001B1FBF0F0EDE7FEF74EFFA3
:10249000616800EB5100B0FBF1F0E5E7008000401F
:1024A000F369FFEF00380140001002400044004093
:1024B0000024F400FFFC0F00000024F40048E801B1
:1024C0002DE9F0479A4617460E4604464FF000099C
:1024D0004FF02008089D39E0681C37D0FEF768FCF3
:1024E000A0EB0A00A84222D80DB320680168490772
:1024F0002CD5C069C043000528D421684FF4006082
:1025000008622068016821F4D07101602068816848
:1025100021F001018160C4F87480C4F87880C4F8A7
:102520007C8000BF84F870900320BDE8F0872068AD
:10253000016821F4D07101602068816821F00101F7
:102540008160C4F87480C4F87880EBE72068C069C3
:1025500036EA000004D00020B842BDD00020E4E7F5
:102560000120F9E7FEE74100080218BF04200A0E27
:1025700018BF40F001004FF07F4232EA010108BF6E
:1025800040F00200012808BF052070470907090E26
:10259000002804DB00F1E02080F80014704700F010
:1025A0000F0000F1E02080F8141D704710B510EE08
:1025B000104A4FF019406849002200EB44002DED0D
:1025C000028B884257D8DFED650A14F0004F60EEA9
:1025D000200A14BFBEEE001AB6EE001A71EE200AF1
:1025E000FDEEE00A10EE900A00EE900AF8EEE00A26
:1025F0009FED5B1A00EEC10A9FED5A1A00EEC10A68
:10260000DFED590A9FED591A00EE201ADFED580A46
:1026100040EE010A9FED571A574B00F0030100EE00
:10262000201A21EE000A7B4403EB8103D3ED000A5C
:10263000524B7B4403EB810393ED001A504B41EE68
:10264000000A7B4403EB8101801091ED000A70EEDB
:10265000800AEABB00EE100AB8EEC01ADFED491A94
:102660009FED490ABDEC028B01EE210ABCEEC00AC7
:1026700020EE200A10BD4FF0FF40A0431BD04FF0CA
:10268000CE40B0EB440F82BFB7EE000ABDEC028B28
:1026900010BD3E48B0EB440F28BF012293D2022068
:1026A00000F09CF814F0004F15D0BDEC028BBDE893
:1026B000104000F07BB814F5000F02BF9FED340A04
:1026C000BDEC028B10BDBDEC028BBDE8104000E0FC
:1026D00007E000F05FB8BDEC028BBDE8104000F0F1
:1026E0005DB800EBD07359104FF07E5202EBC15130
:1026F00000EE101AA0EB630002EBC05060EE200A5F
:1027000000EE100A20EE208A18EE100A88B118EEAA
:10271000100AB0F1FF4F15D018EE100AFFF723FF93
:10272000042808BF00F042F8B0EE480ABDEC028B66
:1027300010BD022000F052F8BDEC028BBDE8104045
:1027400000F034B8022000F049F8BDEC028BBDE87F
:10275000104000F023B800000000501E3BAAB84013
:102760000070313EF4FD053712BB2A3D12BB2A3EF4
:10277000FFFFFF3EFFFF7F3F524F0000564F00001C
:10278000264F00000000004B00007E4E0000A08598
:102790000000000030EE000A704700009FED020AC2
:1027A00020EE000A70470000000000709FED020A52
:1027B00020EE000A704700000000001002E008C888
:1027C000121F08C1002AFAD170477047002001E0AB
:1027D00001C1121F002AFBD17047000001490860A7
:1027E00070470000EC0600202DE9FE4F92460F4690
:1027F000040004D0B4F8480020B1E56C03E00020E8
:1028000000F0F9B800250020E082A082207BC043C0
:10281000800702D030221121DDE0DFB3D5B3288854
:10282000C0B3B7F80490002659E0A868006800EB30
:102830000610019055D068B306EB4600029007EBF6
:10284000C00000900389DBF81820C1889E46C0684C
:102850004B43D2F804C04343634519D8DBF80C302E
:10286000D3F80C80884513D1D3F80880F0450FD1F8
:10287000596881420CD16146106800F09FF9DBF87D
:102880000C10DBF81420C968D2685143884204D286
:10289000182200E025E012219DE0DBF81800006816
:1028A00000F0ACF920F07E41029857F8300020F09B
:1028B0007E40814201D01922EBE70098006980B187
:1028C0000098808878B14946484500D2084681463C
:1028D000DDE900105A4600F091F8761C2DB12888E9
:1028E00004E01722D5E72122D3E70020B04206D921
:1028F000686820B150F826B0BBF1000F95D1BAF14D
:10290000000F0AD0B4F84800012808D9E56C0C354E
:1029100005D0288818B1002759E0012070E7182257
:1029200058E0A868006800EB07183BD0B8F1000F2A
:1029300038D007EB47000AEBC00101900A89D6F8AE
:1029400018C0C8888B469646CB684243DCF8041012
:102950005A438A42E3D8F2680092D2688242DED1BA
:10296000009882687245DAD1009840689842D6D1C2
:10297000DCF8000000F022F9F1687269C968D268D9
:1029800051438842CBD3B069006800F037F920F09A
:102990007E4201985AF8300020F07E40824203D0F7
:1029A000192217E0172215E0DBF810000028F9D0F3
:1029B000BBF8040068B14946484500D20846814644
:1029C00059463246404600F019F87F1C3DB1288830
:1029D00006E021221321204600F0C4FB0FE700206F
:1029E000B84205D9686818B150F82760002E98D110
:1029F000A4F8149091E71EBCBDE8E08F30B5D36811
:102A0000DC685369DB685C4384608B886343C36024
:102A10000C69446009691944016091690B689B0065
:102A200007D4D1E902355B1B23448B609169406870
:102A3000C86030BD70B50546002621E0A9688369ED
:102A4000096801EB06141968890005D5D4E901125B
:102A50009868FDF7EBFB08E0D3E90212891A626877
:102A60001144996080696168C160D4E9010108443A
:102A700060602168884201D3E068081A761C6060B3
:102A80000DB1288800E00020B04206D9686800280F
:102A900003D050F826000028D0D170BD2DE9F041B8
:102AA000054600262BE0A968096801EB0614816938
:102AB0000A6892000FD5A26889686068FDF7B6FBC6
:102AC000D4E90110014461602068814201D3E168CA
:102AD000411A616012E0D4E9011211446160226878
:102AE000914201D3E168511A61608269D2E90237EB
:102AF000DB1B1944916080696168C160761C0DB16F
:102B0000288800E00020B04206D96868002803D079
:102B100050F826000028C6D1BDE8F08110B58CB071
:102B20000446302212496846FDF780FB00F006FAA1
:102B3000049000210A940F4800F0F4F910F0FF0F00
:102B400003D04FF0FF300CB010BD0A4C694620682E
:102B500000F0FCF908B10020F5E7206800F0F4F976
:102B6000206800F0EFF900202060801EEBE70000F5
:102B7000D4740008A806002070B5B8B1B1B10E4CED
:102B800023689BB1251D0122AA80286104F11C0045
:102B9000828001610246211D184600F003FA0128D7
:102BA00007D0206800F0D0F9000A70BD4FF0FF3068
:102BB00070BD002070BD0000A806002099B1C0F3D0
:102BC000C612C0F38233134403FB01F2D21D22F07C
:102BD0000701C0F34152D140C0F34340042804D060
:102BE000082807D104E00020704701EB031101E041
:102BF00001EB0321C91DC8087047000030B5402112
:102C0000C0F34342022A18D02E4A20F07E44A31A71
:102C10000D01944247D024DC2B4AA4EB02039442DA
:102C200041D017DC402C42D0403CB4F5802438D051
:102C3000AC423CD12449C91F39E0C0F3C051C90599
:102C4000C0F3C61241EAC21100F07F02114341F401
:102C500080212CE0A3F54073F93B16D00F2B26D131
:102C600023E0B3F5006F14D006DCAB420FD0A3F520
:102C70008063073B1BD10EE0A3F500630F3B0DD033
:102C8000124AD34213D1124911E012490FE01249FE
:102C90000DE012490BE01049C91D08E00F490F3142
:102CA00005E00F4903E0114601E00A490F3100F049
:102CB00080420A4300F00051114300F000600843D5
:102CC00030BD000040008400470404000FF801FFFD
:102CD0004010820140080400400484004008840041
:102CE0004000040008B509A10968009148B10178C5
:102CF0009DF80020914204D104226946FDF7BAFAFA
:102D000008B1002008BD012008BD00000384048430
:102D1000F0B5059D25F0010403EB84069FED460AFE
:102D2000EF085AE051F8044BD3ED002A04F0FF0CF1
:102D30004FEA1C1E02EB8E0E0CF00F0C9EED002ACB
:102D400002EB8C0C02EE220ADCED001A93ED012A54
:102D5000C4F3072C4FEA1C1E02EB8E0E01EE820A12
:102D60009EED001AD3ED021A0CF00F0C02EB8C0C46
:102D7000D3ED042A01EE210ADCED000A93ED031ADB
:102D8000C4F3074C4FEA1C1E02EB8E0E00EE810AC4
:102D90009EED002A0CF00F0C02EB8C0C240EDCEDE7
:102DA000001A02EE220A93ED052A4FEA141C02EBE8
:102DB0008C0C04F00F049CED001A01EE820AD3ED96
:102DC000061A02EB8404D4ED000A01EE210A93ED09
:102DD000071A20337F1E00EE810A002FA2D115E0D2
:102DE00011F8014B93ED001A270902EB870704F055
:102DF0000F04D7ED000A02EB840400EE810AD4ED43
:102E0000000A93ED011A083300EE810AB342E7D3BA
:102E1000EC0709D0097893ED001A090902EB81014A
:102E2000D1ED000A00EE810AD0ED000A30EE800AF2
:102E300080ED000AF0BD000000000000F0B59FED3D
:102E4000380A059DEE0851E051F8044BD3ED002AF5
:102E5000E7B202EB8707D7ED001AC4F3072702EBAE
:102E6000870701EEA20A97ED002AD3ED011AC4F3F9
:102E7000074702EB8707240E02EE210A97ED001A9E
:102E8000D3ED021A02EB8404D3ED042AD4ED000A38
:102E900001EE210A93ED031A51F8044BE7B202EB5D
:102EA000870700EE810A97ED002AC4F3072702EB9B
:102EB0008707D7ED001A02EE220A93ED052AC4F324
:102EC000074702EB8707240E97ED001A01EE820AEE
:102ED000D3ED061A02EB8404D4ED000A01EE210AB8
:102EE00093ED071A2033761E00EE810A002EABD137
:102EF00005F007040BE000BF11F8015B641E02EB54
:102F00008505B3EC011AD5ED000A00EE810A002C0C
:102F1000F2D1D0ED000A30EE800A80ED000AF0BD5B
:102F2000000000001CB500230322CDE9002301238B
:102F3000014A00F05DF81CBD4404002000487047C1
:102F4000FC38000800F08CB800F094B810B50C46BE
:102F500000F09EF8002821D0214600F02BF9A16A4C
:102F60000F4A0023C91C9360D360103221F0030183
:102F70009160D16010320A4C9160D160303401F11F
:102F8000C802A260E2601034A260E26004F11002A4
:102F90009160D16002F110018B60CB6010BD000028
:102FA000D403002000F0B3B810B501690446884787
:102FB000E068A04200D1002010BD10B50446006DAD
:102FC000002805D06065FFF7EFFF60650028FAD1A3
:102FD00010BD000010B518B1044A0168914200D03C
:102FE00000200446FDF7E6F9204610BD0001C0A10F
:102FF0002DE9F8430546DDE9081091461A0642EA34
:1030000001414FF0000841EA00274446FDF7D2F99C
:103010000F4E65B10F49C9F80010C5F8009000F0D7
:10302000BAF838B10C48874206D974680CE0F069E8
:10303000BDE8F883346807E008A00068009068469F
:10304000FFF750FE10B9B468C5F800802046EFE7DE
:103050004C7500080001C0A1000003010384048432
:1030600010B50446FFF7B6FF08B1002010BD20469A
:1030700010BD000010B5FFF7ADFF20B1BDE8104056
:10308000103000F082B80148806910BD4C7500080E
:1030900070B50C46FFF79EFF050004D02CB12169E6
:1030A000A06A28B10CE0002070BD1122102111E0AF
:1030B000208CE28B5043626A504301D0132207E018
:1030C00059B92089E1884843E168484305D0122274
:1030D0001021284600F046F8E5E71822214605F1C0
:1030E0001800FDF7A3F8182204F1180105F13000CB
:1030F000FDF79CF80320E860286D30B18560C16859
:10310000814202D009B10846F8E7284670BD70B583
:1031100015460E46FFF75EFF04462A463146FFF786
:1031200063FB00281DD0B4F8480008B1E56C00E04E
:103130000025012802D9E66C0C360DE000260BE0D4
:103140002846FFF777FC2046FFF737FF3046FFF7AA
:10315000A5FCE08A401CE082E08AA18A8842EFD385
:1031600080B270BD002802D0103000F016B8704751
:1031700002460068010A012004E05368491E53F822
:10318000213058430029F8D17047002201680270AD
:1031900002600846704701207047037813F0FF0F64
:1031A00001D0002070470170016862F31F210160A7
:1031B00001207047086920490A6842F080420A608D
:1031C00043F6C43202448A60CA6010310A6842F091
:1031D00080420A6043F2DC7202448A60CA601031A5
:1031E0000A6842F080420A6043F2147202448A6024
:1031F000CA6010310A6842F080420A6042F65052BA
:1032000002448A6042F650120244CA6010310A68D1
:1032100042F080420A6042F6880202448A60CA6034
:1032200010310A6842F080420A6000F58062C1E90C
:103230000220012070470000740300202DE9F04FA8
:10324000406988B0018809B1426800E000225268F4
:1032500032B109B1426800E000225268136800E010
:103260000023012902D942680C3200E00022526892
:103270003AB1012902D942680C3200E000225268BA
:103280001268022902D94468183400E000246468F6
:103290003CB1022902D94468183400E00024646873
:1032A00024680229A1460BD9406810F1180F07D0F5
:1032B00030F8181F012903D9406810B1406800E0B8
:1032C00000200590D868D168D0F804804868049040
:1032D000D1E9020148430790D9F81840002120683D
:1032E0000191C0F3C611C0F34155E940C0F343401A
:1032F0000691042801D0082801D1E0680190D9F88E
:1033000014004FF0000A406803909069856898693E
:10331000D0F808B0049805EB80079FED3B3A6DE0CC
:10332000D9F818008468059810B18069866800E0B3
:1033300000260198C8B958E016B1B6EC010A01E0C0
:10334000B0EE430A8DED020A0698019A04285B4606
:10335000CDF80080214602A80AD0FFF76FFD039840
:103360009DED020A0444A5EC010ABD42E4D33EE00F
:10337000FFF7CEFCF3E716B1F6EC010A01E0F0EE40
:10338000430A204659464246B0EE430A1BE000BFBE
:1033900090ED001AD1ED001A01EE210A90ED011A0C
:1033A000D1ED011A01EE210A90ED021AD1ED021AB7
:1033B00001EE210A90ED031AD1ED031A10301031FD
:1033C000121F01EE210A042AE2D206E0B0EC011A33
:1033D000521EF1EC011A01EE210A002AF6D10398DF
:1033E00030EE800A0444A5EC010ABD42C3D3049820
:1033F0000BEB880B07EB80070AF1010A07998A4556
:103400008ED308B000F002B80000000030BCBDE868
:10341000C08F70B505464069018809B1426800E077
:103420000022526832B109B1426800E000225268BD
:10343000146800E00024012902D942680C3200E03F
:103440000022526842B1012902D940680C3000E0E4
:1034500000204068066800E00026A86978B140684E
:10346000012804F1080016D0FFF782FE0246A86981
:10347000A1698368B069BDE8704000F037B904F114
:103480000800FFF775FE0246A169B069BDE870400B
:10349000002300F00BB9FFF76BFE0246A869A16993
:1034A0008368B069BDE8704000F080B92DE9FC4147
:1034B0004069018809B1426800E00022526832B1D7
:1034C00009B1426800E000225268146800E000245C
:1034D000012902D942680C3200E00022526842B150
:1034E000012902D940680C3000E0002040680568DE
:1034F00000E00025E0684668E868476804F10800D5
:10350000FFF736FECDE900670246A1693346A86998
:1035100000F06EF9BDE8FC812DED028BADF5427D2A
:10352000FDF754FCFEF75DFD1421BBA8FCF797FEE8
:103530005248C16C41F00101C164C06C002400F02C
:103540000100C0906020CDE9BB04BBA94FF09040C2
:10355000BD94FDF75BFBFEF7E1FB4A48484901607B
:10356000047144714461012184610162FDF700FB33
:10357000FEF70AFCFEF734FCFEF748FC41486438CD
:10358000FDF78AFA3F4DDFF800B1A14624354FF42C
:10359000FA5AE84600273E4600243A482430FEF70F
:1035A00047FA2968C1F82490364859466438FDF72F
:1035B0001FFA58B933486438FDF713F900EE100AC2
:1035C00008EB8400B8EE400A80ED000A28685146F6
:1035D000426A8A42FCD3641CBB2CDEDB9DED000AF0
:1035E00000214046B0EE408A00EB8102D2ED000A95
:1035F000F4EEC00AF1EE10FA02DDB0EE600A06E069
:10360000F4EEC80AF1EE10FA01D2B0EE608A491C5D
:10361000BB29E9DB30EE480A002100BF00EB810244
:10362000491CD2ED000ABB2970EEC80A80EE801A50
:1036300082ED001AF2DB6846FEF7EEFB134880EDE0
:10364000000A10EE100AB0F17C5F05DD18EE100ADA
:103650000F49884200DD7F1C761C052E9CDB032F62
:103660004FF0640302DB08220AA101E00A220CA148
:1036700004486430FEF7C8FA8CE7000000100240EE
:1036800000300240A407002040420F00A4060020A2
:1036900000007A444E6F726D616C0D0A00000000EC
:1036A00041626E6F726D616C0D0A000010B56FF0B3
:1036B000030303EB82038C688068E2181844DFED93
:1036C0000A0A0CE092ED000AB5EEC00AF1EE10FA1B
:1036D00001D2B0EE600A80ED000A001F121F8B6855
:1036E0009342EFD910BD000000000000D3ED021A94
:1036F00093ED000A93ED011A6FF00303F5EEC01A83
:1037000003EB82038A688068F1EE10FA1A441844C9
:1037100045D2B5EEC01AF1EE10FA10D113E000BF99
:10372000D2ED000AF4EEC00AF1EE10FA03D270EE08
:10373000C00A60EE810AC0ED000A001F121F8B68EC
:103740009342EDD970479FED181A0CE0D2ED000AB4
:10375000F4EEC00AF1EE10FA01D2F0EE410AC0ED2B
:10376000000A001F121F8B689342EFD9704700BFF9
:10377000D2ED000AF4EEE10AF1EE10FA09D2F4EE0D
:10378000C00AF1EE10FA06D270EEC00A60EE810AAD
:1037900001E0F0EE610AC0ED000A001F121F8B6805
:1037A0009342E5D9704700000000000010B5D3ED4A
:1037B000000A6FF0030303EB82038C688068E21851
:1037C00018449FED0A1A0CE092ED000AB4EEE00AEC
:1037D000F1EE10FA01D2B0EE410A80ED000A001FAE
:1037E000121F8B689342EFD910BD0000000000004B
:1037F0002DE9F047064688680C46DDE9089800EB9D
:103800008201B068A1EB890500EB82019A46A1EB29
:1038100088070BE0A5600023524621463046B7607A
:1038200000F00CF8A5EB8905A7EB8807E068A84233
:10383000F0D9A060F068B060BDE8F0872DE9F041F4
:1038400015462DED028B8E688768DFED1F8A96ED99
:10385000008A01200CE000BF06EB800191ED000A18
:10386000B4EEC80AF1EE10FA01D3B0EE408A401C63
:10387000A842F1D300240EE006EB840090ED000A8C
:1038800030EE480AFEF792FE07EB840070EE288ABD
:1038900080ED000A641CAC42EED3F7EE000A002073
:1038A00080EEA80A09E000BF07EB8001401CD1EDC3
:1038B000000A60EE800AC1ED000AA842F4D3BDEC14
:1038C000028BBDE8F0810000000000000400000051
:1038D000B401002004000000F401002004000000F6
:1038E00038020020040000007802002004000000DC
:1038F000BC02002004000000FC02002022AA95C0A7
:1039000044BE94C065D293C087E692C0A9FA91C024
:10391000CA0E91C0EC2290C00E378FC02F4B8EC0C4
:10392000515F8DC073738CC094878BC0B69B8AC067
:10393000D7AF89C0F9C388C01BD887C020F086C024
:103940005E0086C0801485C0A12884C0C33C83C0AB
:10395000E55082C0066581C0A18F80C0931A7FC0E8
:10396000D7427DC01A6B7BC05D9379C0A0BB77C086
:10397000E4E375C0270C74C06A3472C0AE5C70C0DA
:10398000F1846EC034AD6CC078D56AC0CECB68C04F
:10399000FE2567C0414E65C0857663C0C80461C01E
:1039A0000BC75FC04FEF5DC092175CC0D53F5AC0D8
:1039B000196858C05C9056C09FB854C0E2E052C02D
:1039C000260951C069314FC0AC594DC0F0814BC080
:1039D00033AA49C076D247C0BAFA45C0FD2244C0D6
:1039E000821442C0847340C0C79B3EC00EFB3CC0E3
:1039F00078763AC0911439C0D43C37C032BA35C059
:103A00005C6D33C0FE5932C0E1DD2FC025062EC0EB
:103A1000682E2CC0AB562AC0EE7E28C0A66A26C0EF
:103A200075CF24C0B8F722C06E0121C03F481FC027
:103A3000E8AE1CC0C6981BC009C119C04CE917C02C
:103A4000D0A316C0EFA013C0C13D12C07C1910C096
:103A500010980EC0E0DA0CC0A2C90AC02C1708C02A
:103A6000E20307C0EACE04C06B2603C0328801C05F
:103A7000AB0000C01513FCBF028AF8BF6F88F3BF0C
:103A80009DB6F1BF935EECBFC222EABFA6B3E6BF0C
:103A9000D087E2BFB5C1DEBF0FBFDABFEAA7D6BF8E
:103AA0007048D4BFBF64D0BF3985CBBFC8D0C8BFB2
:103AB000C216C5BF7ADDC0BF264FBDBF2D89B9BFB5
:103AC00016D2B6BF58DAB2BF698FAFBF1FECAABF1C
:103AD0002421A7BFD280A3BF36CD9FBF72819BBFD9
:103AE0000A0098BF971F95BFFDC391BF28668DBF81
:103AF000014A89BFFC0786BF56C182BF06947CBFBE
:103B0000B3F174BFEA776DBFB5EC66BF802D5FBFC0
:103B1000EEBB57BF392D51BF2CAF49BF1BFA42BF77
:103B2000DCF93ABF263E33BFA8412CBFC24D24BFAB
:103B3000887D1CBF845D15BF7B5F0DBF901F07BFD5
:103B4000933700BF411BF2BE7B3AE3BEB764D3BEDE
:103B50000981C4BE6163B6BEFAABA9BEDD779BBE68
:103B6000352E8CBEC4587ABECC2959BEE16339BE0D
:103B7000C1E81BBE79BCFFBDE501C3BD08F488BD2B
:103B80005B2822BD3DF843BCF5B4933C0A7F3A3D27
:103B9000CE0A963D9A1ACC3D276B023E74FA1E3E21
:103BA00053073D3E244E5C3EDC4A7C3EA2B28C3E36
:103BB000AC0F9B3E4C0DAA3EF9A4B93E1204C93E7F
:103BC0005598D83EAA13E63EFDB1F53E3738023F80
:103BD0000C78093FAF16103FFEDB173F15981E3FCC
:103BE000CB6B263FB7802D3FACCE343FC6F43C3F75
:103BF000F625433F1B8B4A3F7E27523F8F905A3F0B
:103C0000D84E613FF6B6693FEC75713FA8DA783F50
:103C100023517E3F83FD823F8FCF863F2ADD8A3F3F
:103C2000E6E08D3FCE91913FAACE953F6267983FE7
:103C3000B2509D3F3261A03F8FA0A43FDAB7A73FAB
:103C4000E6CAAB3F537CAF3F3386B33F0C23B63F4E
:103C50008173BB3F9D9ABD3F6CB6C13FC633C53F24
:103C60005A9ECA3F33D3CD3F722FD13F0863D43F12
:103C700045D3D73F864DDA3F34B4DD3F1536E13FBB
:103C80002A91E63FA440EA3F1DF0ED3F969FF13FA9
:103C9000DFBCF53F9286F93F0260FD3FBE2E00403B
:103CA0007B06024045F10340F4B50540B18D074065
:103CB0006D6509402A3D0B40E7140D40F06A0E4047
:103CC00060C410401D9C1240D3711440964B1640A6
:103CD0005323184010FB1940CCD21B4089AA1D4029
:103CE00046821F40035A2140BF3123407C092540B2
:103CF00039E12640F5B82840B2902A40A6A4A6ACE7
:103D0000A5989F9BAF9EAE938EA4AD9CAAADA7AA8B
:103D1000A8AEA69FAB9FA9A39C9E9087848A8D95F1
:103D200092839AA0A2929EAFAFA8AAA4ABA8B0A675
:103D3000B2B3B4BCC8CAB9B8B5B6A7BBB5A4979D51
:103D4000A898A69D987B8494A1937A8B8E999FA620
:103D5000A29096A1B7C8B7A6A2A49E928A7D7EAA79
:103D6000BBB3AE9D94C9ADAB90B1AEA6A28E9EA9D9
:103D70008C9F8E9CA299999498A2B293A090C8BC53
:103D8000A49B967C698B8C848989ABAFB9A2ACBFAC
:103D9000BFC2C0A5B4967F7C7F7D8895A59CA49F5B
:103DA000B4A2A7929F9CAEB7CBC9B1ACD4C5ABA30C
:103DB0008CB7A5948AA598B595F37770CBEAFFCC1C
:103DC000B0A1A49F8B969E8E8E99A1A59CA6A29F22
:103DD0009FA2A29A9FACAEAAA493A6ADA4A2ADB195
:103DE000B6B7BDA8BAAD9CA4ABA1969B9D9D9B9276
:103DF000989594949C8E8A848D97A3A799A2A5AB3D
:103E0000ABA9AFA79D9599AFB8B1A4A4A49787AC6F
:103E1000A49C999EA1A898A2A7A4A4AEAB9FA8A475
:103E2000A6A6A693A3A9AD918D9EA5939CA89F99A4
:103E3000A8AAA8ABB8AFA4949A92989AA9ABA4B236
:103E4000A1A0A8A89CB398A2929A9DB0A8AAA09756
:103E5000A7A8A48E8C90AAA5B8BCBBA5A7A9A6A309
:103E60009B9CAB9B998795878FA5C0BACAAFB09929
:103E70008574B8B0916EB6CEA8A7AFA79F9DB59731
:103E80009FAFAFA2A2A19AA4A0A49690AC8E909747
:103E9000988BA49EA3A9A4B0A5BFBCB5B1B9ACAB87
:103EA000A4A3AA98939D90988B999CBFC4ACA0A002
:103EB0009D9FA79194A18C8FA3A8A9A8B4C5B8BBB6
:103EC000ABA3A59F8F90917A979C9593B1A6B6B31B
:103ED000B4B8B9B18D72819B948D8893A2B4ABB202
:103EE000B0B3BC9EA9BAA59E9C8AA3A99DA99CAA71
:103EF000B0AEA7B1A89BA7B4B9B89C8B8F6E7B77E7
:103F00008090A5A3A3A2ACC6ACAAB1A1A4B6A2A559
:103F1000A4A0A497A5A9A5A79EA49FA6A0A6AFAD5F
:103F2000A895A7AFAEA4ADB5A7A09BA29E9E9FA04B
:103F3000A49C9D9EA19D9BA0A6A49EA59F9D9EA581
:103F40009CA5A19DA3A49B9B9D9BA29FA4A29FA077
:103F5000A39EA59D9EA2A5A1A1A3A1A5A6A5A49F40
:103F60009C9B9CA19EA29EA3A3A29F9BA3A3A29C59
:103F70009EA4A2A09DA5A4A0A6A39B9DA69CA1A231
:103F8000A69CA4A4A4A59FA4A0A5A39CA5A3A7A107
:103F9000A3A29EA1A2A49B9E9B9EA0A49BA69C9C28
:103FA000A1A4A49FA1A1A29DA5A2A29D9D9EA3A5FF
:103FB000A0A3A19DA5A4A9A7A2A3A7A5A8A3AAA2BF
:103FC000A9AAA79D9EA1A4A39DA19F9FA0A3A6A4CB
:103FD000A0A1A3A3A49BA0A4A2A09DA59E9E9D9EDC
:103FE0009D9E9EA29DA2A1A4B0B3AC6FB2E0C5A35A
:103FF0007F718E9C8780898D959F9DA1A4A29DA590
:10400000ADB5C4B3B3B2B7B9A597989C87817C838B
:104010008A96909C9596B4BBA6A0AAAEAEA8ADAE6B
:10402000AF9EA1A6A6AAADC2AEB4C4B5C3B8B4A093
:10403000A29FA2A69DAAA494A0969EA5A499A59F7E
:104040009798A7A1B0AE9A9CADA1A5ACB0A5A0B31E
:104050009FA4AAA4A7A5989BA4ADA99C829CA9AF44
:10406000A5A59CA49EA0A9C3A2AFB4AA9092778351
:10407000685EA08E90949BA4B8A0AAA8939AA2B5BB
:10408000BFC6C3F3E5CAA0B08E767F6D5B39425ED2
:104090006077707F7D9C8D93999E98B0BEC7BEC798
:1040A000CEE7E7BC998B908CBBC9E6D8C2A8D3D623
:1040B000DBDAC2BCAAA8B49D8F8880807E738F8A09
:1040C0007F829284878189949697909B9C959599FD
:1040D000999DA89AA1A8999EAFAEA5AAA09996A9C4
:1040E000A2A1929EACA7B0AEA29F9AA3A4B4988EB0
:1040F0009D9DA89E9DA7B889ACA8AAAEA8AE9AA17E
:10410000A2A9A2A3A5A5A1A4A6AAAD9FA6A39B947C
:1041100097AE9DACA6AAA59A9CB1A0A1AD91979E81
:10412000899FA3A599B5A89AA6988CA2BEB2B2B150
:10413000A9A3A6979FA1AD90B99BA0B3B9A4A8BA13
:10414000A1A0B1B0A28A908E9F939AA7ABB9BEBB33
:10415000AC9EB18B93949692AEBEB8BEC09C8FC2FB
:10416000AE6982BFBEA5A9ACAF9B9489918F939491
:10417000968D869190787A7D7C828C918F8FA4AB7E
:10418000B1AA9B98909698949BA396959392999593
:10419000949D90A399968C99A596A1B3BABAAFB7FE
:1041A000AFABAFB9A5A6B2B7A5A7ACAFA8A79E8D78
:1041B00091A9B6B7B4A8A3A1A4A89EA9B6B7BAAA54
:1041C0009BAC9AA1A7A79DA89B9EA3B8B8AFA9B77F
:1041D000BCC3BEB9ACBCBDB0BBB3A4B3B7C1C5A86A
:1041E000ABAEB5A9A3A2A99DB6B1B1A9A8AFA0A72E
:1041F000A09AB3B99EABA3B6A8A2A2ACA29CB0AE43
:10420000A29CA4B7C1A1A0929BA5AAA494A1C1B24B
:10421000AAAAB0B6C5B4BABBBC5E70BE9D6F9BD235
:10422000E0C4C4A79A96928E959894A4A3A49B9256
:10423000958B8C868B87949CA8B1B1BABBBAB6AB70
:10424000ABA9999AA09BA2A99EA8ABAFADAA9D9835
:10425000A2A19A94908B97A9AAACA5B2B2B4ADB41E
:10426000AFA5B4B1BEBDAFA2C3B5B8A6AFA0A3946D
:10427000969997839FA5A5ACA8A1A8AEAB97A7A533
:10428000AAA0B1B5AFB1AFA5A2A09989ACA7AE98CD
:10429000A7B2A4A8AAA2999A9AA7A2A6AAB9AE9FC1
:1042A00099A994A5AEA9B2B4A09EA7B8BEB5AD9C7D
:1042B000B68DA38FADAEABABB9C1B2AAABB697A169
:1042C00097AAAAA1A5A2A3A0AFA0948DA19894910A
:1042D000AB938E8EB9CB6341D5DFAAA0979FAFB0C9
:1042E000B6B0B1B5B09BA28E999A929E92948C80F2
:1042F0007B7F888596A0B2B5AFBBACA7ADB2B1B39A
:10430000B4B2AEB8ADA5A7A6A0A9A29CA0949AA14C
:104310009E909BA09F9BABA4A4AFA6B0AFA18FA083
:104320009F9F9CA2A2A7B7ACB1ABB0ADA4A49A9B2F
:10433000AAA29F9D9B9FAEBA9FA6A9A9A49AB4A129
:104340009891868DA0AEAB93A395949CAFAAADA691
:10435000AA9DAAA99BA0A69FA2A8A9AFA9B9B2A4E9
:10436000A8A2A0A0AEA59795AFA5A29B839D839080
:1043700098B3B0A8AAAAA1A7AF95A2A19F9F979F03
:104380009D9F96919AA6ABA9A8A6AFB8B3C5C6B48F
:104390006B98A9C69B88688692737F949F95A5A009
:1043A000A3A9B1AA989697A5A1989FA39F9D9DA503
:1043B000ABAEBEBFB7BEB9B6B3B2BBBCBEB2B2AD98
:1043C000AAA69B9DA3B1B2A7A09F9E978B8D8A871B
:1043D0008692A193958E9399A08B8E8B869DA8979C
:1043E000989C98A9A5A4AFB29FA3BBACB0AAA4A95E
:1043F0009BA6AFAEAC9CA2B0BC9DAEAAB2A5A2A635
:10440000B49EB5A1A5A1BFA5A0978490A49A9991A7
:104410009DAD9486828F979EADAABBAFA29D9DA4B1
:10442000B2BBB1AEA9A9AFB1A3A3ACA3A9A98EAFEA
:1044300096A8AFA39A869AA4ABA49A95A59CA2BB72
:10444000ABA19BA2B0A3B8B5AAA4A58A83968B7D85
:1044500087A2B4B896A3B6B3B6B5ADABB5BBB2B987
:10446000B6C0A3A9B19B8F8A8584838990868087F3
:1044700093919094979A98A1A2B1B4AAA3A0A0BB3B
:10448000B5A299968F9F9BAEBFBAAAB4BCBCB4B27A
:10449000B2C2C2B2ADAE90ABAAAC9EA4A5A3A3A07B
:1044A0009FA3988C93ACA596918AA5B6AFA49A9831
:1044B0009B9783A8A49B8C919399A5B3B2A5AB9D20
:1044C000ABAD9BADBCC0B7B8BBC4C2BEA594868E15
:1044D000B5AE888B96998EB39FA29D9EA7A4A9B3D3
:1044E000B9B8BC9FA87E8B91ACAC989E8DA0A198CA
:1044F0009BA5A3A5B098A0A39BA0A29B978E8A8AF8
:104500009D807D8889838C91865B6A93B0D5DAC65D
:10451000BAC8BEB1AEA4A3909CA5A19FA39E8E8154
:104520008A9295A0AAB7C9CCC9BDB6AFABA29897DD
:104530009F97A89CA8A7A3A5B0ACB3B3A899979D33
:104540009DA2B0AAADA5A2A8ABA998A1A3978F964A
:104550009E9B9DB3ADB4AEB2C4B2ACAC8D94AA94E4
:1045600096A7A0A0B3B7B79D888AA193798099AF89
:10457000B89A7B7984846B5F837F878B9AA2ACAD7A
:10458000AAA7AAAAA0A8ACC2BFAEABB6CEB4B5B615
:10459000C0B4AFA9AAA3A8A99897A3929E9B9297EB
:1045A000A2A4B5AD8E89A2A4A8A7A0A5ABA3AFAFC6
:1045B0009C9AA1A9A5919294A094959CA4A5B6C2F9
:1045C000D4ABA8CD8E9CAE8E90A5B2A89D899FB885
:1045D000A9B0ADAABABAB0B5AEADA69B93887C8E91
:1045E000887497A29FA9BCBFBAB1B3BDAFB0ABA549
:1045F000A89EAAA89BA09CA59894909D909EA9ADCA
:104600009AAFA6A091A1A7A49A999FA2929DA79DB7
:10461000A896949C9A8E9C8D9E949E8E9D9CA09F05
:104620009FB1A2A3A9A17D7F9FADACA8A7C6A28C74
:1046300084939EBEAFB5A6A7A0AEA09BAEA795AB38
:10464000A4A68BB6A09080A9B4C1A4C2AA97A09B2F
:10465000A2AAA5BEA59BA28DA3A4A4C0ADB097ABF2
:10466000929DB3A2899E91A59CABA2A294A3B4AF44
:10467000A9ABA1A2A4AF9AA7A89984C7CD9694622A
:1046800017527A7D9592A59CB0B0AD92888D878D9A
:10469000877C85838E80999CA6B3CBC3C4C5B2ACFE
:1046A000ABA7A299ACA99D9EB3A3AEA9ACAFADA98F
:1046B0009C9B96968F859CA9A29A97979897989B72
:1046C00097ABA4A5ABABAFA5A5A2B6A5B3AAB0B056
:1046D000BDADA1B38DA2A3A0A7AEAFB39CAD9C9B73
:1046E000AE98A6A9B1A59AA1A59BABAA9F91ABAB89
:1046F000B4A09C9BB0A09F82A2AE9FACB0958683D5
:1047000080A4A3BE9BA6A8A3ABADB2B3988799998A
:10471000A49EA19691B3B6BABFC7A8A9B2B1B4ACD2
:10472000A5A5A3B3AAA3A5959A83909AA0A1A4A690
:10473000ABB1C2A89A95D496878D7E91B7AD898783
:1047400098B09E99A6A6B9B1A7A8B1A09AAA9FA30E
:10475000A5A79CA9ABAFB4B0A4A492979AA5AAB5FB
:10476000B4ABA5959F92979DA2A2ABABA9BBB2A6F5
:10477000AEADA1A5ACBB958F9FA0AB98B0A6A0A3F2
:10478000AC9F91A497949D8F8CA3A39E968DA8A176
:10479000B699A1A09493B4B2B3BCB8BEBAB5A3A362
:1047A000A7939FA3979B85839EB49A9C908FA9AF54
:1047B0009C9B9F94A1B4A77B8C9C7F90B6B2A6A231
:1047C000BCA5AAAAA4977A8777818680969DBAB459
:1047D0009EA1A2B8BFBFB1AEA3A08E928395A2B195
:1047E000BAA3A1A29194988D9E9BA19999908C9225
:1047F00092709CC7C99198AC9A859FA9BDB9B3AC7A
:10480000A6A39D9B8B8F93898A8A90959996A1AB3D
:10481000A9AEA4B2A9979B91949D9AACB4AAAFB447
:10482000BBB8B1B2B8B2A6A9BAC0A8A89DA0A0ADA5
:10483000A2A4A9A39D999DA7A0AFA79E8A9B9E9F76
:104840009B85909D9C8EA6A8BAB7B9BFA6807B8A8F
:10485000958EA0AAA7B9ACB3B8BFB193A3A6A0B7D1
:10486000B9BBB3A68F9390817E7B6E7B8892799A39
:1048700084878590848FA6ABA9BBB7B4B0AAAEAE2F
:10488000A8A8AFA4B7B4B9BBB6A6A4ABA5ACAD9667
:10489000A09C999E95999CADB4BBB9B9B6B0B2B382
:1048A000B298A29BACB69CA9A3A3A49CC2C8B49C7A
:1048B0008185938694B2ACBCABA1A2A6A09E918E3A
:1048C0008E8781898C97A1A4B7B8AAAAAA99A3A711
:1048D000A6ACB3B1B6ABAEBDA9A6A395978F909386
:1048E00094919BB2B9ABA1B1ABABA9A7A4AAB3A158
:1048F000B0B0BBC1B7B0AD9B9596A299A5959D965A
:10490000969C9E91948CA89EABA5AB91929599A6EE
:10491000A9A99CA693A3758CA7AC94A7AEAC94ADA3
:10492000A59D959FA3978D96B7AAA0A2B69298AA87
:10493000A5A4ABAEB89FB4AE97999192A59685B059
:10494000ADC0A1A3A6A6A5A79F84A7B4AF97A8A012
:104950009DA39C9EA2B0A39BA5A8BA9D9DA29AA12F
:10496000A9AB908A988A84B57C85C9C095859AAA96
:104970009681828C87888F9EABA6A6ACA3A8A3AA9B
:10498000ABADA4A3AB9C929A939A989A9DAEB6B203
:10499000B8BBBCA8A7A7A0AAB6B2BAB4A8A8A89743
:1049A0008A87A3A4B6B6B0BBAB9CA1A79DACAFAAA7
:1049B000A2A2A2A6A9B1A4AEAEAEA07A747B74786E
:1049C0008A8DA3A4ADADB2B8B1B4B3B0BCAE9DAC4A
:1049D000AB90989A9DA8A596A4B7B099A79DACACAA
:1049E00095AABAA1A49199AFB68C7B7A90959FBAFB
:1049F000A7A38899A7A6A0AAA6B7CEB9AA94A0AA49
:104A00009275AD7E55517FA09C9FA2B4BF92919E9E
:104A100096A2B9C1B0B49ED8CACBA685997D766D51
:104A200074729FAEAFD6AEC1DCC8C7B3C09F9191C0
:104A30009C859795927E92747F5B7E683C537865E7
:104A4000748FA4A7C4C1BDB4AA949CA4AD989E9D24
:104A5000AFAEAEA9ABA9A6ADA29BB3A4B1A5988CED
:104A60009DA4A8AAA9A8A79BABB1AFAAA5A4A09DE5
:104A70009CA1A89FA19EB2AAADA4A588A79F9CA512
:104A80009BA59C9E9294A6A5AE9AA19EADA0ABB10B
:104A9000ACB0AAA5A7B3A17FAEB5B4ACAAB3B89B7E
:104AA000AB9B9CA4ACA9C29DAEA0A6A2A5A7A6A1A3
:104AB000A2A376AE929C89A9BBAF84B57067839B95
:104AC000807D97AC9A929191AC9FACA5ADA7A9A718
:104AD0009B9AA2B2B3BAB19B9A9FB4B4BECA93A137
:104AE00080A9B4A7AF938FA9A0AB96AAB5AEAEAF7D
:104AF0009CAA9CA299998F99949C9894909A8B8C3B
:104B0000989E9F9EAAB6B0C6BFBEC5BEABB6BDBC82
:104B1000B2B3A3A1AEAFAEA3AAABAFA29F8FA29F29
:104B20009A8E8B9999AE9EA0969A97A6A4A8A0B0AB
:104B3000B1B0A5939A97A1AFAA929EA48F9CA2A46C
:104B40008E8D99A5AA8CA79D9B7C95ADAFA29CAF9D
:104B5000B2B6A6B1A899A694989C949CA0A8A7A424
:104B6000ADA9A2A1A2A99A9CA9A9B0AC9EA3969B0B
:104B70009E837B9597B3A9ABB19DABB1B8A79B9F23
:104B8000978E9B9E9F9F9FA19DA0B0B19E959C924A
:104B90009CA4ACACAAACB2A8C186B4C5D8C8CFD4CA
:104BA000AB959499998B938F949DA8A3A5ADA4AC34
:104BB000A6A498A191979099A09895AAABA09AA91C
:104BC000A3AFA6A2ADAFB2A2A3C0AFB2A59BAAAD40
:104BD000A9A3A89BA9AFA7AAA4B3AEA5A8B9A2A44C
:104BE000B69A9FA4A18D91A399A395A2A98F9AA0EB
:104BF000AAB29FB1B0A398A0B3958A9BA0A3AC9989
:104C0000AAABA2B4A6B9B3AAABB9C2A0ABA0AE90EE
:104C10009CAA99AA9DA2929B8489A5BCA8A895B09C
:104C2000A7AD969BB09AA0ACA7AB998C80788793E0
:104C3000A4A896B8B0A6A4AFBFAFB9A5A39BA1A6E0
:104C4000A1938B8B9994A19BABA7A2B2B6A99B9A77
:104C5000A9ADB7BBACAAB5ADA09FA1ABA19F938CEA
:104C600095A1A0A9AEA9B7A2ACA8ADACA0ADAF96D6
:104C7000A0A091A19EAFB3B3AAB3ABA7AFA4998BE9
:104C8000958FA992808994B5C7B2AD938B87928A8C
:104C9000A0B2B39A9DAAB29A90A2B8748180797991
:104CA000876D676B7686A7B3B0B8B8B0AFB8C8C425
:104CB000BFB7B2B3C4B58C7FB9B9859E8FABA2988C
:104CC00093A7A4C68C92C0ADA59A9EB0B7755A8C16
:104CD00099A9A888939BB1BBCEB99BB2B1B3ACA93B
:104CE000A78983A9A0A19AA1A4A79AACACB2AE9CB3
:104CF0009BB2B8BBAB998B8094A3B3A2A8AAA9938B
:104D0000A3A2908E948B85A8B7BCB8B8B39AA39A87
:104D10009D9997A0756C7A778B7D8C928B9BB7B0A1
:104D2000A6B6AFB3B2B7ADA09B8E8781757176780A
:104D3000748E939D9CA5A5959DA6B0ADABADA19D90
:104D40009CB1ABABAEB1A5A2A39D9B989DADA39B1F
:104D50009599949CADBBB6BCBCBDC2C0B5B3B7AA57
:104D6000B0B9AEA8B4AAA0AEADB1BFB7B5A49E9F6E
:104D7000A09B969EA3A99BA9A5ADA5AFA4A7C1B8CA
:104D8000A3A5AD9590969C987C9185A2A17A8C92D2
:104D900092AEB9C9C2B2BFB4AAAFC0A5B0A4A06F49
:104DA000487C8681989A999DA7B3A9B9B4A5ACAF60
:104DB000A5B5A0B7A89E8F8E90A58A939499999037
:104DC000909390A4A7A0B0B0AFB3B2B99ABFBA8580
:104DD00085867C8D929E8A8E8F96AB9D9F9F9D9A95
:104DE0009FA1A1AF959596826A797C7D8A92A6B49F
:104DF000C6C2CAC7D1CABBB1B5A89C98A098A0A585
:104E0000B6AFAE9AA3A9A8A6A6A299AAAEA6A5A235
:104E1000ADACB1A79DAA9FAEA0A3A2B8B8B3B6B3DC
:104E2000B4A09B91867F819CB9AA9F9CA79EAFBE90
:104E3000B3A2ACABA79E9D848495A49F979C9A8DAA
:104E4000A1AAA9BFADA3B4ABA4A9A29CA48EA7A7F5
:104E500097A8A2A693A2ABA29FBBB5B1C1AAB6ADBB
:104E60009EBDA6B9C0BEA9AEB6AEA8A3A6A1B7A066
:104E7000AF9EADA7A0A2A3A397A6ABA791A2B4A1F2
:104E800096A59B899F9C9E9EA4A19F9FA7A5A19F3D
:104E9000A49EA5A2A49CA2A2A6A5A3A4A1A6A19DEE
:104EA000A59DA5A0A39DA09FA3A7A2A49D9FA89FE9
:104EB000A19E9FA19FA1A69FA4A7A0A6A39DA1A4D8
:104EC000A3A8A1A5A0A4A2A49E9EA2A7A1A49D9FC1
:104ED000A8A2A2A1A79FA5A2A19FA29E9EA79EA0B5
:104EE000A1A1A1A8A0A09FA39E9EA79EA2A3A3A3A9
:104EF000A3A0A0A5A5A09DA79FA6A1A39EA3A7A38D
:104F00009FA7A1A3A0A89FA19FA29FA1A29EA4A189
:104F1000A6A2A29EA4A1A5A6A09D9DA1A29FA3A773
:104F20009FA09DA3A1A7A3A7A4A7A3A2A29D9FA45E
:104F30009EA6A2A7A4A1A29EA89EA09DA1A7A6A24C
:104F4000B89E5D57B8CAC07F87729475738B807D99
:104F50008886989CB7A0AD9DA8ACA3B0ADB5B2AA09
:104F6000BDB7B9B2ACADB4A3A28C8589928795893F
:104F7000838EA39BA29B928E928F9AA5AFAFB4B85B
:104F8000ADA6ACAAA8AD9E918DB5C1A19FC1BFB67B
:104F9000B0ABA599BCBEA5A7ADA29C8992A89898D4
:104FA000AEBBADA9ABA8AEAA9BA4B1A4A29FB3BD52
:104FB000A899AEA9A1909D90A39DA791B0AFAE9CDA
:104FC000ABA4A295ADB9B690A48AA0B078767CA027
:104FD0009EA4A6A4A8A7A49FA2AEAE919392A198C6
:104FE000A39FADA4A99C979DA099A19B989399A8D4
:104FF000B0A199A4A8A2ADB0BCB2A1B983526994E2
:10500000AEB2B9CACDB0AEAAA9AEB4A3AAA2ABBD86
:10501000B8CEBABEC4ACAF9E9B959EA9A8A0A08CEA
:10502000948A939A9DB2AAB6A7B6C0AFAFAA948845
:105030008C909EA6A6AE9E9A9A97939E9DA9AC9C94
:10504000AA999AB49FA191A29E928B9693999FAF91
:10505000AEACAFA0A7A1A8AAA0A2ABA2A89DA2B2E5
:105060009E929EAEA9A59898A1B9A9A99F9A97A525
:10507000A4979E9BA697A2ADA396A4BAB2BBBAAFC3
:10508000A8AF9B9598949AA1A8A6B7AFB3AB9FAED3
:10509000B792B1A2B79C9BA7959C8DA4B7B8AFB4AB
:1050A0008D92979598A0A4A5A79AA0A5AA9FA0AD18
:1050B000A7A5A39D9C9F9D9DA0A09FA59DA1A19DEF
:1050C000A39DA59EA79EA5A5A5A3A5A1A1A59EA4B8
:1050D000A49EA1A2A0A69CA2A09DA69DA39FA59FC1
:1050E000A29EA19F9EA7A2A0A49DA59EA0A79FA1AE
:1050F000A3A2A0A79EA7A4A6A5A09DA4A1A3A5A284
:10510000A79EA3A7A4A19EA89DA0A0A6A7A2A39E78
:105110009FA2A69EA09EA1A6A3A0A89F9FA09FA677
:10512000A3A6A7A69FA5A0A49EA3A4A6A49FA19D55
:10513000A3A0A59FA39D9FA7A4A5A5A0A3A1A2A04E
:105140009E9DA79FA0A7A1A2A6A3A2A89EA89DA638
:10515000A39EA19FA3A2A09F9EA09E9FA89D9EA04C
:105160009FA4A8A29FA3A29FA6A7A1A0A1A2A7A116
:105170007BBFE57A8BAAA6C6DBB8ABA5BCB2A9A15A
:105180009FA5948A8D887F838588929E9FA4A7A8D7
:10519000B5B6B8C6BFBCB7B6ADA99CABA48A95AA34
:1051A000A1A094A7B1ACABABA7A29E9D9DABA4A1BF
:1051B000AF9AA19D92A79BABB3A5AE93977E79853D
:1051C000938F9AA8B1B3BEB9B4ABBAC4B0B3ABB104
:1051D0009FB3AC9D9AACAC99A4A5ACB09B8BA5A891
:1051E000A19CA6A29F9DA29CA6ABA698AEAF8AA6A4
:1051F000AAACB6A38B92A7BCB69CA49E969FA89F70
:10520000A499A3949CAFA8A29EA3A0AF9FACACA767
:10521000A7AEB0AAA49CAA9D9F8E8A949FAA9E9393
:105220009F99939A999092A0A2A0B2C5BF4D28844D
:10523000858C8D8B82909AABBCC4B9B7BCB1AAAA3D
:10524000A7B0AFA9A8AFA2A9ADA8ABAEBAB2A7A2AA
:10525000968987848384969797A6A5959BB0A9ABDA
:10526000AEB1B39FABA38D8BAAADA98D8E97979846
:10527000A7BE949696ADAAA7A09E99A2A396A19820
:10528000A9A4BFB9B7B2ADB2B3B0A798999EA7A66B
:1052900094969A85A1A7ABBDB2AC9C99999EAEB8E5
:1052A000B29DA7A39893A6AEAEA898A7A196918FFA
:1052B0009BA4A8A4AEBBA3A8A3A5AA9B94A28B95CC
:1052C0009CACAE938B989BA9BAB5A6A4B7A3A79C98
:1052D000A1A09BA29A9FA9ABA7A6ABA9ABA6A4AC81
:1052E000ACBEAEB1B4A89E9D8F765D8CB9BDBECC70
:1052F000C9B7BD9E9B939E9191A1A7B2B1B7B5BB13
:10530000B7ADAC9F998F8F8C9C97A1AFBBBCBDC232
:10531000AEA6A6A3979A907C858F9FA5ADBDB9B088
:10532000A9989A969B9DBBB1A4A5B0A5A1A6B2A130
:1053300097919CACAC93A4ACA89082858B87877224
:1053400094818C828391989A9E868FB3BEC1AF9CC4
:10535000B6B2BCBEAEBEC0B4ADADC7B5B1B3B0A9F8
:10536000AEAF9C98807AA19BA5A39E98A0B4BCBF29
:10537000A9BBB6B1AFA6A59691988B879A87969050
:1053800092B1A4B2B7B9AFA5C6BEA097929E98A09D
:10539000999C8FB2B090A19FA19BA6AC9B96A69D15
:1053A000A7B89D6C898F9AAC9885A9BAB7998D9446
:1053B000A99F9AA3A1A4AAABB4B4BEC5B0ABA9A33C
:1053C000A3A49A9C938D909BA09EA1A3A3A99EA108
:1053D0009EAE9F9FBCB3B0A4BAB0AB9C909B95A26D
:1053E000A3A599AB97949BA99AA3A7A4A3A8B4A794
:1053F000AB9F9299AC9981889396A4C8B3AA9C8CD0
:10540000748388857EAAADB6ACA2B8AE989BA2B0D4
:10541000AAA9A3B6A1A5B29EA0A8A19AAEADACB20E
:105420009BB199B0B2A79EB1B8A8A8AAA6A9A8A4F2
:10543000ACA9A39EA8A8A9AFA0AE9DAAB1AEA5A6EF
:105440009A9FA6A39DA8A896A3969E9F8E9AA2A770
:105450009C9FADA9A7AEAAA596909DB16A87998A8F
:10546000C6C888768C8054527D95A5A0B0B3AFB5E0
:10547000A9ADB1AC9FA4A0A69B9FABA7ACB3BEC186
:10548000CACACCC1C0AEA5A799A7A2A5A8B1A1922E
:10549000A5A8A6A49994A0AA95A5A89FA9A39EA9EA
:1054A000A1A39FB5AFA79DA6A79E9BA29AA1988BEB
:1054B00096ADB29D9DBAB29BA0A28A8D85A2ABB1DA
:1054C000A9ACA3A9B6A8999AA5A4A093A2A794BF92
:1054D0009B9487AAA9B2A8AA9EA3A7AB9FA5AEC07A
:1054E0009C9E95979BA1A1A9A49A9E96908E8C8F25
:1054F0009AA095A8A5A8A09FAAABAF9FAFB1AAAD4F
:10550000AAABB2ACB3ADA6A5AAA39798B5AAA2AC14
:105510009E9CAEAEADB2BAA79F9FA69FA39E9E9C37
:10552000A4A59C9EA29C9C9FA1A6A29CA2A29FA374
:105530009F9B9E9CA69DA5A1A5A3A4A3A19EA0A060
:105540009E9CA49F9DA2A0A1A39C9E9DA4A7A39D59
:10555000A5A2A69CA09DA1A49DA09FA49FA6A19E3C
:105560009E9E9DA7A4A4A2A29DA3A09DA0A79DA32B
:105570009DA6A39E9E9FA5A29EA6A3A3A5A39F9D15
:105580009DA49DA3A0A2A49FA1A0A3A4A69EA0A009
:10559000A2A6A0A1A4A6A0A6A4A6A3A69DA0A0A3DF
:1055A0009FA49EA7A2A59E9DA5A5A2A29FA6A29FDD
:1055B0009FA6A1A2A5A4A49D9DA6A6A3A0A0A1A4C8
:1055C000A5A3A39CA7A6A5A79FA69D9C9CA19EA4BE
:1055D000A5A3AFB4BE959B908599A39998A2A99BCA
:1055E000A4A8ACAAA7AFA3BAAAB49EA0B3A09CA932
:1055F0008F93959B9A96A09CB4A3A79B8EA9998DF7
:105600009BAAAD9F97A0A08C8D9D9CAB99A7A0BA9B
:105610009A96939595978B8493957FA0ADBFB6ABE3
:10562000ACAAA5A69B878095A4968A718CA1AFA4ED
:105630009596A9ABAEB8A9B7C7DAC6B9A1ACB0B454
:10564000C8BBBAA6AFC39DABA8A6A2A8B994A5B47F
:105650009F9BA9AA928F98BCA9B3AB9DA89BA7B703
:10566000A19EB083898087806B6FA7A0C3D2AC86D0
:105670009AA891998A9794A6AC99918F9CA38BA490
:10568000B288766E6A73A7AFAA8E7F989069AAF0E7
:10569000C5919892A5B6A4A8A4A3B6A394A5A79CC7
:1056A0009499959B8B9086848A979AA7AAABC0BC45
:1056B000BFC1B6B0A8ABABAAA4A496A9ADABB2AC1F
:1056C000A6A09CA59392939CAA9DA29B979E9C9B0F
:1056D000ADA2A19C9CABC1C5BBB6B1B5B0B3B19FE7
:1056E0009AA5B5A7AE9BA793A4A8A99C9D95A69A99
:1056F0009A99A3B49EA6A1A3A39F9FA0A690A1B18F
:10570000ACA6A49F9E9C949AB2B2909FABA8989D81
:105710009F9AADADA8AA97A7A3A59DAFADA9B0A626
:105720009698969CA6ACB5AAABB2C5ADA2B6A8A7F2
:10573000A6C19C9C7780787F8477908B8D80999C84
:105740007E6165667F7C838190AAAA8CCBC2A9B555
:10575000B5B2A9B3B0C0A6A1A9AAAE9E9EAAAEA496
:10576000A6B2ACAAAEB0B2A8A8ACA5A0A5B0A9A795
:10577000AFBBC0B9BDABA6C1A7ADAAACA49FA99849
:1057800094979E97A59AA8A99C909A9594A9909B66
:10579000949B909488789B9DBD90955D55837D8466
:1057A0007E9D92C63D5D7D7B91AB5AB0AFA89AB00D
:1057B0009E5C52A0A88BB5BBA5768A967B82A9A9D0
:1057C000B49199CDAB8B8BA8A2BACA488484A18727
:1057D000736A808982736E64787B877E8F8C8B7D01
:1057E0008B88A3A6C4D0C8BDAC9AA2AAB0AAAB9419
:1057F0009A979A88948A8C9EAAB3BAA9B5A9A499B3
:1058000099A6B5B6B39DA0BBBC8F7691CADCCFBEBE
:10581000A5959FAE9598A2AC8686849C946690963A
:10582000939BC6B4B2ACAA9FA39A8C978C818875BF
:1058300088826963628D8795B3BFB49FA4BBB8AB00
:10584000ADAAA99DA9A0A1A2AFABA09AA1AF9AAB06
:10585000B59EA59F9FAFA39CB0A6B3AAA498A0AEE7
:10586000949BA0A9A9999DA2A19DAFB88A80868981
:10587000869E84A47A8299C4A5949E740024587943
:1058800078706F6F77747B7B7976787178737A87AD
:1058900093989A9A9D979D9A9C9C9D97959C99996F
:1058A000989896A096989A969B9B9E979D969D9B5E
:1058B0009D9E9E96989D9E9D9BA39B9A9F9E907B4E
:1058C0007ED9B18F81849DA6B8A5A69FABAFB3BB8F
:1058D000B0AFBBB2BAABA8989888988C8D8E909ACE
:1058E000A8979C9EB5B1B5A5B0A8AEA7ADAAA18C4E
:1058F0009493A2A6AFA6B4A7AFCDA69B9692A1B350
:105900009E9E9C909AB3A2AAADB5B6A0B89B9B9F51
:105910009EB3B6BA9BA7AFBCB3AA92B48D927C7665
:1059200099B0A57B748CA2A67FA66BBBA68EC4A1E2
:1059300095BBA4A0AE9993ACAD7E54745D79B24B87
:10594000758C9196A499A1A4B18C8E8C91938A8B1D
:105950009090939499939B979A9F9EA09F97A19CB8
:105960009D9B99A0A1A39EA5A4A59C9EA19FA1A338
:10597000A59D9EA39EA7A3A5A2B095B8C8B28684F4
:10598000869392A09C84A089969A9CACBAA7A8A55D
:10599000A89E9E939088A8B5BDB7B0A49A7C8F9F0F
:1059A0009CA3B3A1A3AFB1CAC7BFA8B9B9A2956D53
:1059B0007E72A4B1B3938273888C88A4A1A8C2B567
:1059C000AFC3BCB69B9FB48C876E98828CB4ACADD1
:1059D000AEA0A7A9ABAEB2AA9EAE9B85A1A587B08B
:1059E000A1AAA9BCA7AFA49257908D8C8D858B8E50
:1059F000918F9C9B99949E9FA199999B9DA1A8AAE8
:105A0000ADB5B2A3A8C0B1A9A6AFABBAAAA9ADADB6
:105A1000A49D938EA1A1ABB4BFC0ADAFA4A4B2AD01
:105A2000ACAAA4B5BEC19FA49996838883819FAB7D
:105A3000838C9C84C8B56F59D1DEAFABA8989E8A81
:105A40009CADA5ACB4A5AFACA5AE9DA89C938E872C
:105A50008598999DAEB4BAB5B2B0AEA5A8A59F9CE5
:105A600094A38C92A39DAFA4ABABAAB5A3ABA08724
:105A700081899BABABAAB9B5ACB7A59BAC98899211
:105A8000929E989B919DA2A4ABB7B1B2A5B3A9A6D3
:105A9000AA8D89858F988D9BA2A7A19FAA9FAA995D
:105AA000AF9EA9A4AEACAC8FA0A9A6A2AB9C9DABA7
:105AB000B4AA9892A1A091B3A2B58B9BAEB09D89D8
:105AC0009AAEA1A5B4B1C79BA09BA295978A8D91D0
:105AD0009CB28F9EA8B3B9B7B6A8A6A8ACA0999A55
